:100000000C9448010C9479010C9479010C947901B9
:100010000C9479010C9479010C9479010C94790178
:100020000C9479010C9479010C9479010C94790168
:100030000C9479010C9479010C9479010C94790158
:100040000C9479010C9479010C9479010C94790148
:100050000C9479010C9479010C9479010C94B310EF
:100060000C9479010C9479010C9479010C94790128
:100070000C9479010C9479010C9479010C94790118
:100080000C9479010C9479010C9479010C94790108
:100090000C9479010C9479010C9479010C94FD1065
:1000A0000C9479010C9479010C9479010C947901E8
:1000B0000C9479010C9479010C9479010C947901D8
:1000C0000C9479010C9479010C9479010C947901C8
:1000D0000C9479010C9479010C9479010C947901B8
:1000E0000C9479010C94A7060C945C080C946F0294
:1000F0000C9473060C9473020C948E020C945106AB
:100100000C94D7020C9411020C940E020C948A02E7
:100110000C9460060C94A0020C947A060C9477025E
:100120000C9450060C9498020C9448030C94920280
:100130000C94A6020C9484020C94AA020C94211232
:100140000C949C020C9465020C9408030C940F020E
:100150000C947A020C94DB060C9480020C9410022E
:100160000C94A5020C946B020C94F517000021006E
:10017000240027002A002D00300033000101000078
:10018000040107010A0100002200250028002B00BD
:100190002E003100340002010000050108010B01AE
:1001A000000020002300260029002C002F00320030
:1001B0000001000003010601090105050505070509
:1001C00008080808020202020A0A080804040404D3
:1001D00001010101010101010303030303030303FF
:1001E000040707070C0C0C0C0C0C0C0C020202028E
:1001F00006060606060606060B0B0B0B0B0B0B0B77
:100200000102102020080810204010204080020128
:10021000020108040201010204081020408080400D
:10022000201008040201800402018040201008040C
:1002300002010804020101020408102040800102AA
:1002400004081020408000000A0B02090C0D0E0863
:10025000070304010000000000000000000000008F
:10026000000000000000000000000000000000008E
:10027000000012111000000000000000000000004B
:100280000000000000000000000000002112F5172F
:1002900011241FBECFEFD1E2DEBFCDBF00E00CBF07
:1002A00024E0ACEDB2E001C01D92A436B207E1F744
:1002B00012E0A0E0B2E0EEEFFAE300E00BBF02C014
:1002C00007900D92AC3DB107D9F711E0C7E4D1E03A
:1002D00000E006C021970109802FFE010E947018DE
:1002E000C634D10780E00807A9F70E94D1120C9408
:1002F0006D1D0C94000096E0899FD0011124AF5031
:10030000BC4F90967C936E935F9791E091969C93EF
:100310009197E0915E04F0915F0490915D049923C0
:1003200039F0309751F0811108C080910D04199473
:10033000309719F05C968C91FACF0895CF92DF92A6
:10034000EF92FF920F931F9396E0899FF001112483
:10035000EF50FC4F11A2278D30A12130310551F112
:1003600078F02230310509F451C02330310509F409
:1003700052C01F910F91FF90EF90DF90CF900895A2
:100380006623B9F361E070E00E947B012FB7F89417
:100390008091A5039091A603A091A703B091A80313
:1003A0002FBF8093490490934A04A0934B04B093C9
:1003B0004C04DFCF9FB7F894C090A503D090A6035C
:1003C000E090A703F090A8039FBF0091490410910B
:1003D0004A0420914B0430914C04C01AD10AE20A1D
:1003E000F30A00915B0410915C0430E020E00C15EE
:1003F0001D052E053F0550F462E070E01F910F913E
:10040000FF90EF90DF90CF900C947B016111B1CF02
:1004100063E070E0F3CF70E060E0F0CF08950895FE
:100420000895AF92BF92CF92DF92EF92FF920F9317
:100430001F93CF93DF936C017B018B01040F151F7A
:10044000EB015E01AE18BF08C017D10759F06991E2
:10045000D601ED91FC910190F081E02DC601199536
:10046000892B79F7C501DF91CF911F910F91FF90F3
:10047000EF90DF90CF90BF90AF900895FC01448142
:1004800055816081718189ED93E00C941102815056
:10049000823108F05AC0E82FF0E08827ED5AFD4F6E
:1004A0008F4F0C9470187302770265026B026F0213
:1004B000A5027A02800284028A028E0292029802C7
:1004C0009C02A502A002A602AA02809180008F775A
:1004D000809380000895809180008F7DF9CF809176
:1004E0008000877FF5CF84B58F7784BD089584B56C
:1004F0008F7DFBCF8091B0008F778093B0000895FF
:100500008091B0008F7DF9CF809190008F7780939C
:1005100090000895809190008F7DF9CF8091900098
:10052000877FF5CF8091A0008F778093A0000895FA
:100530008091A0008F7DF9CF8091A000877FF5CFBB
:10054000809120018F778093200108958091200170
:100550008F7DF9CF80912001877FF5CFCF93DF93F7
:10056000282F30E0F901EA5BFD4F8491F901E0505A
:10057000FE4FD491F901E654FE4FC491CC23A1F073
:1005800081110E944702EC2FF0E0EE0FFF1FE056B2
:10059000FE4FA591B491EC91ED2381E090E009F438
:1005A00080E0DF91CF91089580E090E0FACF862F30
:1005B0000C94AE021F93CF93DF93282F30E0F90104
:1005C000EA5BFD4F8491F901E050FE4FD491F901AF
:1005D000E654FE4FC491CC23A9F0162F81110E943E
:1005E0004702EC2FF0E0EE0FFF1FEA57FE4FA591F8
:1005F000B4918FB7F894EC91111108C0D095DE2317
:10060000DC938FBFDF91CF911F910895DE2BF8CF40
:10061000862F642F0C94DA02CF93DF9390E0FC01D5
:10062000E050FE4F249186549E4FFC018491882314
:10063000C9F090E0880F991FFC01E459FE4FA59185
:10064000B491FC01EA57FE4FC591D49161110DC0E0
:100650009FB7F8948C91209582238C9388812823CE
:1006600028839FBFDF91CF910895623051F49FB7E7
:10067000F8943C91822F809583238C93E8812E2BD4
:10068000EFCF8FB7F894EC912E2B2C938FBFEACF3E
:10069000862F642F0C940C036F927F928F929F92FF
:1006A000AF92BF92CF92DF92EF92FF920F931F9380
:1006B000CF93DF9381E080935D048FB7F8944091EE
:1006C000A5035091A6036091A7037091A8038FBF63
:1006D00080914D0490914E04A0914F04B09150042C
:1006E000481B590B6A0B7B0B8091590490915A045B
:1006F000B0E0A0E084179507A607B70708F01DC172
:10070000C0E080915704C81760F4E0915304F09161
:100710005404EC0FF11D62E080810E940C03CF5F56
:10072000F0CF712C812C912C54018394809158042A
:10073000781608F05FC0072D10E0E0915504F091A5
:100740005604E00FF11F61E080810E940C03E091EC
:100750005504F0915604E00FF11F60E080810E9483
:10076000DA02D501C401072C04C0880F991FAA1F03
:10077000BB1F0A94D2F76C017C01E094F094612CC9
:10078000809157046816F8F4C62DD0E0E091530428
:10079000F0915404EC0FFD1F80810E94AE0224965C
:1007A000CC0FDD1FCF50DC4F892B41F4888199811C
:1007B0008C299D29998388836394E2CF88819981CC
:1007C0008E219F21F7CFE0915504F0915604E00F60
:1007D000F11F61E080810E94DA02809155049091BE
:1007E0005604080F191F60E0F80180810E940C0375
:1007F00073949CCFC1EFD3E0FE018FEF9FEF278D65
:1008000030A1232B21F4148E968F858F11A236965A
:1008100024E0ED32F20799F7F12C96E0D92E809181
:100820005704F81608F050C0E12C0F2D10E0000F0F
:10083000111F07501C4F20915804E21608F042C0C7
:10084000F801608171810E2C02C0769567950A943B
:10085000E2F7F29E900111242E0D311DE1EFF3E03D
:1008600080E0458D568D2417350709F46AC08F5FE7
:1008700036968A30B1F760FF23C0E1EFF3E090E0F5
:1008800080E0448D411117C0E0915104F091520471
:10089000E20FF31F4081D89EF001D99EF00D112484
:1008A000EF50FC4F448F368F258F10A2178E61E0DA
:1008B0000E949E0105C0019636968A30910509F77F
:1008C000E394B9CFF394ABCF80E099A19111892F34
:1008D0002696F4E0CD32DF07C1F79FB7F894409138
:1008E000A5035091A6036091A7037091A8039FBF31
:1008F00040934D0450934E0460934F047093500402
:100900008823D9F0809112048823B9F080911004D3
:1009100090911104019789F480910D04DF91CF919A
:100920001F910F91FF90EF90DF90CF90BF90AF900D
:100930009F908F907F906F90089510925D0480E05B
:10094000EDCF6170B5CF3FB7F894809122039091BD
:100950002303A0912403B091250326B5A89B05C0CD
:100960002F3F19F00196A11DB11D3FBFBA2FA92F2E
:10097000982F8827BC01CD01620F711D811D911D2B
:1009800042E0660F771F881F991F4A95D1F7089597
:100990008F929F92AF92BF92CF92DF92EF92FF928F
:1009A0004B015C010E94A3046B017C010E94A30423
:1009B0006C197D098E099F09683E73408105910578
:1009C000A8F321E0821A9108A108B10888EEC80EA8
:1009D00083E0D81EE11CF11C81149104A104B10430
:1009E00029F7FF90EF90DF90CF90BF90AF909F904E
:1009F0008F9008952091FE02260F3327331F213256
:100A00003105ECF420917B03FC0190E080E0243080
:100A100069F082E00895A091FE022191AC0142525A
:100A20005D4FA40FB52FB11D2C930196861798F337
:100A30008091FE02680F6093FE0280E0089581E0DD
:100A4000089510927B0381E080937A0310925503FE
:100A500061E084E10E94DA0261E085E10E94DA024D
:100A6000E9EBF0E080818E7F808380818D7F8083C1
:100A700088E48093B80085E48093BC000895CF9308
:100A8000DF9391E09093DD028823B9F0C091B80024
:100A9000D091BA008091BC008A7B8093BC0060E05A
:100AA00084E10E94DA0260E085E10E94DA020E949D
:100AB0002105D093BA00C093B800DF91CF9108957B
:100AC0008F929F92AF92BF92CF92DF92EF92FF925E
:100AD0000F931F93CF93DF93D091A403D13208F0EB
:100AE000D7C0182FC091A3030E94A3046B017C01FF
:100AF00080917B0381116BC082E080937B03109314
:100B00007A038FEF8093790310927803D093770361
:100B1000A3E8B3E0E7E5F3E080E0D81391C01092DA
:100B2000560380915603CC0FC82BC0935603809177
:100B30005503813009F088C0109255030E94A30428
:100B40006B017C01809156038093BB0080917D03F3
:100B500090917E03A0917F03B0918003892B8A2B13
:100B60008B2BA1F00E94A30400917D0310917E03C2
:100B700020917F03309180036C197D098E099F09B4
:100B8000061717072807390708F442C08091BC00F0
:100B900083FDD8CF85EC8093BC000E94A3046B0139
:100BA0007C0180917B03823009F450C080917903ED
:100BB0008F3F09F46FC080917903803209F46CC0D3
:100BC00080917903803309F469C084E026C0809164
:100BD0007D0390917E03A0917F03B0918003892BC8
:100BE0008A2B8B2B09F484CF0E94A30480907D0371
:100BF00090907E03A0907F03B09080036C197D09D4
:100C00008E099F0986169706A806B90608F070CFC8
:100C100080917C030E943F0585E010928203109230
:100C2000A40310928103DF91CF911F910F91FF9048
:100C3000EF90DF90CF90BF90AF909F908F900895EE
:100C40009D9191938F5F69CF85EEA5CF80917D03B4
:100C500090917E03A0917F03B0918003892B8A2B12
:100C60008B2B09F49ECF0E94A30400917D03109169
:100C70007E0320917F03309180036C197D098E09DA
:100C80009F09061717072807390708F08ACFC0CF32
:100C900081E0C3CF80E0C1CF82E0BFCF83E0BDCF92
:100CA0000895E0912D0380912C03E81730F4F0E0D3
:100CB000E25DFC4F808190E008958FEF9FEF0895F3
:100CC00090912D0380912C032FEF3FEF981748F45C
:100CD000E92FF0E0E25DFC4F208130E09F5F9093D0
:100CE0002D03C901089580912C0390912D03891B38
:100CF000990B0895CF92DF92EF92FF920F931F937B
:100D0000CF93DF937C01CB018A01209181032223C1
:100D100089F0EB016B01C40ED51ECC15DD0569F021
:100D20006991D701ED91FC910190F081E02DC7010F
:100D30001995F3CF642F0E94FA04C801DF91CF9177
:100D40001F910F91FF90EF90DF90CF900895CF9378
:100D5000DF931F92CDB7DEB76983209181032223F1
:100D6000F9F02091A403203258F021E030E0FC019A
:100D70003383228390E080E00F90DF91CF9108953C
:100D800080918203E82FF0E0ED57FC4F998190832A
:100D90008F5F809382038093A40381E090E0ECCF87
:100DA00061E0CE0101960E94FA04F7CF682F89EA2C
:100DB00093E00C94A70690E080E00895CF93CAE0FA
:100DC00088E00E94AE02892B69F089E00E94AE02A1
:100DD000892B41F069E170E080E090E00E94C80456
:100DE000C15071F7CF9108950E944C038093DC02AB
:100DF0002091DC022223C1F32332B1F3822F022E91
:100E0000000C990BC0972A3211F48AE090E0089503
:100E1000CF93DF93EC0160E08E810E94DA0261E003
:100E20008E810E94DA0260E08E810E94DA028BE8F5
:100E300091E00197F1F7DF91CF910895CF92DF9282
:100E4000EF92FF920F931F93CF93DF936C017C017E
:100E500087E0E80EF11CD0E0C0E0062F10E0B801FA
:100E60000C2E02C0759567950A94E2F76170F70140
:100E700081917F010E94DA022196C430D10579F771
:100E8000C601DF91CF911F910F91FF90EF90DF90FE
:100E9000CF900C940807CF92DF92EF92FF920F93BE
:100EA0001F93CF93DF93EC01F62E642F8C810E9469
:100EB000DA028D818F3F19F060E00E94DA020F2D77
:100EC00010E08F8584FF25C06E0187E0C80ED11C1D
:100ED000F12CE12CB8010E2C02C0759567950A948F
:100EE000E2F76170F60181916F010E94DA02FFEF73
:100EF000EF1AFF0A88E0E816F10461F7CE01DF91EE
:100F0000CF911F910F91FF90EF90DF90CF900C94B5
:100F10000807B80184E0759567958A95E1F7CE01D9
:100F20000E941E076F2DCE01DF91CF911F910F916F
:100F3000FF90EF90DF90CF900C941E0740E0682F59
:100F400089ED93E00C944B0781E00E949E078BE3B0
:100F50009FE10197F1F70895CF93DF93823029F451
:100F60009091E80398609093E8038093EC031092CB
:100F7000ED0380E48093EE0380E18093EF0380E54E
:100F80008093F00361E08091DD030E940C03809167
:100F9000DE038F3F19F061E00E940C0361E0809155
:100FA000DF030E940C03C9EDD3E09E01295D3340AD
:100FB0008091E80384FD0BC084E090E0219628171F
:100FC000390744F461E08E810E940C03EECF88E083
:100FD00090E0F4CF8BE39DE00197F1F760E0809122
:100FE000DD030E94DA0260E08091DF030E94DA02F2
:100FF0008091DE038F3F19F060E00E94DA02809159
:10100000E80384FD34C063E089ED93E00E941E078D
:10101000CBE4D6E4CE010197F1F763E089ED93E0EC
:101020000E941E072197F1F763E089ED93E00E948B
:101030001E0783E592E00197F1F762E089ED93E006
:101040000E941E078091E80380620E949E0784E050
:101050008093E9038CE00E949E070E94A40782E02F
:101060008093EA0386E0DF91CF910C949E07806223
:101070000E949E078BE496E40197F1F78091E803C4
:1010800080620E949E0783E592E00197F1F78091CC
:10109000E80380620E949E07D5CF9091EC03691708
:1010A00010F06FEF690FE62FF0E0E752FC4F9489E4
:1010B000890F80680C949E0741E00E944B0781E0F5
:1010C00090E008958F929F92AF92BF920F931F93DB
:1010D000CF93DF93CDB7DEB7A1970FB6F894DEBFFD
:1010E0000FBECDBF19A2423008F44AE08E010F5D59
:1010F0001F4F842E912CB12CA12CA50194010E948C
:101100004E18E62FB901CA01EA3044F5E05DD80176
:10111000EE938D01232B242B252B79F790E080E093
:10112000109769F0FD0101900020E9F73197AF01B8
:101130004A1B5B0BBD0189ED93E00E941102A19651
:101140000FB6F894DEBF0FBECDBFDF91CF911F91D8
:101150000F91BF90AF909F908F900895E95CD7CF8B
:10116000CF92DF92EF92FF926C01990FEE08FF0889
:10117000F7FE16C041E06DE289ED93E00E944B0757
:1011800066277727CB016C197D098E099F094AE0F4
:101190000E9462080196FF90EF90DF90CF90089533
:1011A0004AE0C701B601FF90EF90DF90CF900C941A
:1011B0006208FC0101900020E9F73197AF01481B5C
:1011C000590BBC0189ED93E00C9411020F931F930E
:1011D000CF93DF938C01EB01FC018081918100971B
:1011E000E1F06881798161157105A9F0428153812F
:1011F0002C813D814217530770F00E94901A8C8118
:101200009D81F801958384831D821C82DF91CF919B
:101210001F910F9108950E94141988819981F801F6
:10122000918380838A819B81938382838C819D813A
:1012300095838483198218821B821A82E5CFCF930B
:10124000DF93EC0188819981009711F00E941419B5
:10125000198218821D821C821B821A82DF91CF9113
:101260000895FC0180819181009711F00C9414196C
:1012700008950F931F93CF93DF93EC018881998199
:10128000009759F02A813B812617370730F081E01B
:10129000DF91CF911F910F9108958B016F5F7F4F69
:1012A0000E949D19009759F0998388831B830A83B4
:1012B0002C813D81232B59F7FC011082E8CF80E07F
:1012C000E7CFEF92FF920F931F93CF93DF936115B8
:1012D000710541F480E0DF91CF911F910F91FF9054
:1012E000EF90089541155105B1F07B01EC010C819F
:1012F0001D81040F151FB8010E943909882351F37D
:10130000288139818C819D81B701820F931F0E94B2
:10131000901A1D830C8381E0DECFCF93DF93EC0125
:10132000FB0101900020E9F73197AF01461B570BF5
:101330000E946109811103C0CE010E941F09CE01E4
:10134000DF91CF910895CF93DF93EC01FB014481AE
:101350005581608171810E946109811103C0CE01B4
:101360000E941F09CE01DF91CF910895EF92FF9265
:101370000F931F93CF93DF93EC017B018A01BA0196
:101380000E94390981110BC0CE010E941F09CE01B4
:10139000DF91CF911F910F91FF90EF9008951D83E2
:1013A0000C83B701888199810E94901AF0CFEF9247
:1013B000FF920F931F93CF93DF93CDB7DEB7629762
:1013C0000FB6F894DEBF0FBECDBF8C01CB01F80184
:1013D0001182108213821282158214824AE09E01C9
:1013E0002F5F3F4F7901B9010E940D18F70101905D
:1013F0000020E9F73197AF014E195F09B701C80125
:101400000E94B60962960FB6F894DEBF0FBECDBF3C
:10141000DF91CF911F910F91FF90EF900895CF939F
:10142000DF93EC01FB018617970749F0608171811A
:101430006115710541F0448155810E94B609CE01C4
:10144000DF91CF9108950E941F09F9CFFC0111820D
:10145000108213821282158214820C940F0ACF9389
:10146000DF931F921F92CDB7DEB7FC01118210826D
:10147000138212821582148269831A82BE016F5F01
:101480007F4FFB0101900020E9F73197AF01461B28
:10149000570B0E94B6090F900F90DF91CF910895DE
:1014A000FC01118210821382128215821482FB01C8
:1014B00001900020E9F73197AF01461B570B0C94C0
:1014C000B6092F923F924F925F926F927F928F92C6
:1014D0009F92AF92BF92CF92DF92EF92FF920F93C3
:1014E0001F93CF93DF93CDB7DEB768970FB6F8940D
:1014F000DEBF0FBECDBF7C018B016DEA72E0CE0175
:101500000D960E94500A6DEA72E0CE0143960E9449
:10151000500A10922B0310922A030E94A40760E045
:1015200080E00E944D088FE592E00E94D90832E0E9
:10153000C32ED12C4AE0942E57E1A52EB12C0E9447
:10154000F40640912A0350912B03949E9001959E9E
:10155000300D1124820F931F883191050CF0FCC2CD
:1015600090932B0380932A0361E080E00E944D0852
:1015700080912A0390912B030E94B008CA94CD2831
:1015800009F0E6C264EF71E080E090E00E94C804D8
:1015900080902A0390902B0310922B0310922A0321
:1015A0000E94A40760E080E00E944D08B801CE01CF
:1015B00007960E94D7096BE672E0CE0101960E9461
:1015C000500ABE01695F7F4FCE0101960E94A309B8
:1015D00061E772E00E948D090E943E02CE010196F1
:1015E0000E943109CE0107960E943109B2E0CB2E4C
:1015F000D12C8AE0782E9BE3A92EB12C0E94F40610
:1016000040912A0350912B03749E9001759E300DDA
:101610001124820F931F8C3391050CF0A6C2909376
:101620002B0380932A0361E080E00E944D088091A3
:101630002A0390912B030E94B008CA94CD2809F088
:1016400090C2A0902A03B0902B0310922B0310920B
:101650002A0364EF71E080E090E00E94C8040E94D9
:10166000A40760E080E00E944D08B801CE01079613
:101670000E94D7096BE672E0CE0101960E94500AE3
:10168000BE01695F7F4FCE0101960E94A3096AE700
:1016900072E00E948D090E943E02CE0101960E94D6
:1016A0003109CE0107960E94310972E0C72ED12C74
:1016B000EAE05E2EFFE16F2E712C0E94F40640914D
:1016C0002A0350912B03549E9001559E300D1124F6
:1016D000820F931F803291050CF050C290932B0320
:1016E00080932A0361E080E00E944D0880912A03E4
:1016F00090912B030E94B008CA94CD2809F03AC2F9
:10170000C0902A03D0902B0310922B0310922A032F
:1017100064EF71E080E090E00E94C8040E94A4079A
:1017200060E080E00E944D08B801CE0107960E945B
:10173000D7096BE672E0CE0101960E94500ABE0105
:10174000695F7F4FCE0101960E94A30960E872E0B5
:101750000E948D090E943E02CE0101960E9431092D
:10176000CE0107960E94310932E0632E712C4AE0C7
:10177000342E5CE0452E512C0E94F40640912A0341
:1017800050912B03349E9001359E300D1124820F11
:10179000931F8D3091050CF0FAC190932B03809329
:1017A0002A0361E080E00E944D0880912A03909115
:1017B0002B030E94B0086A94672809F0E4C1609086
:1017C0002A0370902B0310922B0310922A0364EFCC
:1017D00071E080E090E00E94C8040E94A40760E0ED
:1017E00080E00E944D08B801CE0107960E94D709FB
:1017F0006BE672E0CE0101960E94500ABE01695F5D
:101800007F4FCE0101960E94A30969E872E00E9411
:101810008D090E943E02CE0101960E943109CE013F
:1018200007960E94310984E0482E512C9FE0292E12
:1018300097E2392E0E94F40640912A0350912B031F
:101840006AE0649F9001659F300D1124820F931F01
:10185000803127E292070CF09FC190932B03809375
:101860002A0361E080E00E944D0880912A03909154
:101870002B030E94B00861E0461A5108D9F6409047
:101880002A0350902B0310922B0310922A0364EF2B
:1018900071E080E090E00E94C8040E94A40760E02C
:1018A00080E00E944D08B801CE0107960E94D7093A
:1018B0006BE672E0CE0101960E94500ABE01695F9C
:1018C0007F4FCE0101960E94A30960E972E00E9459
:1018D0008D090E943E02CE0101960E943109CE017F
:1018E00007960E94310961E080E00E944D08B40132
:1018F0008AE0881691040CF054C1CE0107960E942C
:10190000D7096DE972E0CE0101960E94500ABE012E
:10191000695F7F4FCE0101960E94A309BC01CE01F1
:1019200043960E940F0ACE0101960E943109CE0112
:1019300007960E943109BE016D5E7F4FCE01019670
:101940000E94260A68E972E0CE0101960E948D0984
:10195000BC01CE0143960E940F0ACE0101960E945F
:101960003109B501CE0107962AE0A216B1040CF0A8
:1019700026C10E94D709BE016D5E7F4FCE01019640
:101980000E94260A6DE972E0CE0101960E948D093F
:10199000BE01695F7F4F0E94A309BC01CE0143963F
:1019A0000E940F0ACE0101960E943109CE010796CE
:1019B0000E9431096AE0C616D1040CF00FC1B601CD
:1019C000CE0107960E94D7096DE972E0CE0101961B
:1019D0000E94500ABE01695F7F4FCE0101960E94AE
:1019E000A309BC01CE010D960E940F0ACE010196FB
:1019F0000E943109CE0107960E943109BE01635F42
:101A00007F4FCE0101960E94260A6AE972E0CE015C
:101A100001960E948D09BC01CE010D960E940F0A0D
:101A2000CE0101960E943109B3018AE06816710463
:101A30000CF0E3C0CE0107960E94D709BE01635F98
:101A40007F4FCE0101960E94260A6DE972E0CE0119
:101A500001960E948D09BE01695F7F4F0E94A30914
:101A6000BC01CE010D960E940F0ACE0101960E9484
:101A70003109CE0107960E943109B201CE010796C5
:101A80000E94D709BE01635F7F4FCE0101960E947D
:101A9000260A6AE972E0CE0101960E948D09BE0114
:101AA000695F7F4F0E94A309BC01CE010D960E9481
:101AB0000F0ACE0101960E943109CE0107960E94BD
:101AC0003109BE016D5E7F4FCE0101960E94260A4C
:101AD0006CEA72E0CE0101960E948D09BE01635F3F
:101AE0007F4F0E94A309BC01C7010E94260ACE01B4
:101AF00001960E943109C7010E943E0268EE73E020
:101B000080E090E00E94C8040E94A407CE014396A2
:101B10000E943109CE010D960E943109C7016896D5
:101B20000FB6F894DEBF0FBECDBFDF91CF911F91EE
:101B30000F91FF90EF90DF90CF90BF90AF909F906C
:101B40008F907F906F905F904F903F902F9008956F
:101B5000CC24C394D12CF3CCB0922B03A0922A03B3
:101B600003CDCC24C394D12C49CDB0922B03A092A9
:101B70002A0359CDCC24C394D12C9FCD70922B0332
:101B800060922A03AFCD66246394712CF5CD5092F8
:101B90002B0340922A0305CE30922B0320922A0376
:101BA00060CECE0101960E94D709BE016F5F7F4FC4
:101BB000CE0143960E94E608CE010196BACE0E945D
:101BC000D709BE016D5E7F4FCE0101960E94260AA5
:101BD000BE01695F7F4FCE010196DDCEB601CE0119
:101BE00001960E94D709BE016F5F7F4FCE010D960F
:101BF0000E94E608CE010196FFCECE0107960E9414
:101C0000D709BE01635F7F4FCE0101960E94260A6D
:101C1000BE01695F7F4FCE01019620CF85ED809395
:101C2000BC0080917D0390917E03A0917F03B091D1
:101C300080030796A11DB11D23E0B695A795979542
:101C400087952A95D1F72091BC0024FD03C01092FE
:101C50007B03089540917D0350917E0360917F0343
:101C600070918003452B462B472B69F30097A10504
:101C7000B10541F025E32A95F1F700000197A1098C
:101C8000B109E1CF80917C030C943F05CF92DF92A4
:101C9000EF92FF920F931F93CF93DF93CDB7DEB7F1
:101CA000C656D1090FB6F894DEBF0FBECDBF8C016A
:101CB0007B0160910E02CE01855A9F4F0E942F0A30
:101CC00060910D02CE018B5A9F4F0E942F0A6091A6
:101CD0000C02CE01815B9F4F0E942F0A60910B0284
:101CE000CE01875B9F4F0E942F0A60910A02CE01AE
:101CF0008D5B9F4F0E942F0A60910902CE01CD9605
:101D00000E942F0A60910802CE01C7960E942F0AF6
:101D100060910702CE01C1960E942F0A60910602CF
:101D2000CE018B960E942F0A60910502CE01859606
:101D30000E942F0A60911902CE014F960E942F0A2D
:101D400060911802CE0149960E942F0A60911702F5
:101D5000CE0143960E942F0A60911602CE010D9685
:101D60000E942F0A60911502CE0101960E942F0A4F
:101D7000BE016F5F7F4FCE0107960E94260ABE010B
:101D8000635F7F4FCE0107960E94A309BE016D5E7F
:101D90007F4F0E94A309BE01675E7F4F0E94A30987
:101DA000BE01615E7F4F0E94A3096CEA72E00E944F
:101DB0008D09BE016B5D7F4F0E94A309BE01655D69
:101DC0007F4F0E94A309BE016F5C7F4F0E94A30951
:101DD000BE01695C7F4F0E94A309BE01635C7F4F17
:101DE0000E94A309BE016D5B7F4F0E94A309BE0143
:101DF000675B7F4F0E94A309BE01615B7F4F0E941A
:101E0000A309BE016B5A7F4F0E94A309BE01655A08
:101E10007F4F0E94A309BC01CE018F599F4F0E94A2
:101E2000260ACE0107960E943109CE0101960E9432
:101E30003109CE010D960E943109CE0143960E94D0
:101E40003109CE0149960E943109CE014F960E9478
:101E50003109CE0185960E943109CE018B960E94F0
:101E60003109CE01C1960E943109CE01C7960E9468
:101E70003109CE01CD960E943109CE018D5B9F4F75
:101E80000E943109CE01875B9F4F0E943109CE012C
:101E9000815B9F4F0E943109CE018B5A9F4F0E9458
:101EA0003109CE01855A9F4F0E94310960911C0271
:101EB000CE010D960E942F0A60911B02CE01019661
:101EC0000E942F0ABE016F5F7F4FCE0107960E94CE
:101ED000260ABE01635F7F4FCE0107960E94A309C9
:101EE000BC01CE0143960E94260ACE0107960E94AD
:101EF0003109CE0101960E943109CE010D960E9452
:101F00003109F80124813581A7968EAD9FADA79741
:101F10002817390709F07BC080819181A3966EADA7
:101F20007FADA397009761F06115710531F4232B04
:101F3000A9F0FC01808190E00EC00E94871A0BC0BE
:101F40006115710559F0232B49F0FB01808190E068
:101F5000919581959109892B09F059C08F89988DA8
:101F6000892B09F454C06CE972E08B899C890E942A
:101F7000871A892B09F04BC08BE0C82ED12C0E9408
:101F8000A40760E08CE00E94DA0264EF71E080E078
:101F900090E00E94C80461E08CE00E94DA0260E0F8
:101FA00080E00E944D08B701CE0107960E94D70934
:101FB0006FE972E0CE0101960E94500ABE01695F8E
:101FC0007F4FCE0101960E94A3090E943E02CE01DE
:101FD00001960E943109CE0107960E94310961E005
:101FE00080E00E944D08C8010E943E0264EF71E04B
:101FF00080E090E00E94C804F1E0CF1AD10809F017
:10200000BECF60E08CE00E94DA020E94A407CE01FD
:1020100043960E943109CE018F599F4F0E9431098A
:10202000CA59DF4F0FB6F894DEBF0FBECDBFDF91A8
:10203000CF911F910F91FF90EF90DF90CF90089577
:10204000BF92CF92DF92EF92FF920F931F93CF93A5
:10205000DF9300D0CDB7DEB7082FB62E142F88E05F
:102060000E94AE02892BD9F3CE0101967C0186EA4B
:10207000C82E82E0D82E89E00E94AE02892BC9F5D5
:102080001F5F8091540381111EC0183100F51F920B
:102090001F93DF92CF92FF92EF920E94971A6B2DBF
:1020A000802F0E944D08C7010E94D90868EC70E09B
:1020B00080E090E00E94C8040F900F900F900F9066
:1020C0000F900F90D8CF813021F41C3300F310E033
:1020D000DECF823021F41032D0F211E0D8CF83303D
:1020E00019F41D30A0F2F9CF843089F6143678F255
:1020F000EECF6B2D802F0E944D088BEA92E00E945C
:10210000D9080E94DE061F921F93DF92CF92FF92A2
:10211000EF920E94971A6B2D802F0E944D08C701E5
:102120000E94D9080E94DE0688E00E94AE020F904D
:102130000F900F900F900F900F90892B09F09BCF6D
:10214000809154038F5F80935403812F0F900F90E1
:102150000F90DF91CF911F910F91FF90EF90DF9043
:10216000CF90BF9008951F920F920FB60F92112437
:102170002F933F938F939F93AF93BF938091A5032A
:102180009091A603A091A703B091A80330912103D9
:1021900023E0230F2D3758F50196A11DB11D209383
:1021A00021038093A5039093A603A093A703B09364
:1021B000A8038091220390912303A0912403B0915E
:1021C00025030196A11DB11D809322039093230343
:1021D000A0932403B0932503BF91AF919F918F915A
:1021E0003F912F910F900FBE0F901F90189526E8EA
:1021F000230F0296A11DB11DD2CF1F920F920FB6D1
:102200000F9211240BB60F922F933F934F935F932E
:102210006F937F938F939F93AF93BF93EF93FF93AE
:102220008091B900887F803609F44DC008F040C025
:10223000883209F4A9C028F5803109F49DC0C8F49A
:10224000882309F4FBC0883009F496C0FF91EF9110
:10225000BF91AF919F918F917F916F915F914F91BE
:102260003F912F910F900BBE0F900FBE0F901F90BC
:102270001895883109F488C0803241F7809379033A
:1022800014C0803409F49DC040F48033B9F388331E
:10229000E9F68093790385ECB0C0803509F485C0F8
:1022A000883509F496C0883489F60E940E0ECECF88
:1022B000883909F48CC038F5883729F050F488360D
:1022C00011F0803719F683E080937B03109220038E
:1022D00057C0883809F47BC0803919F0803809F07C
:1022E000B5CF80912003803208F071C0E0912003C7
:1022F00081E08E0F809320038091BB00F0E0E050DE
:10230000FD4F80833DC0803B39F0E0F4803A09F412
:1023100079C0883A09F09ACF84E080937B031092C9
:10232000FF021092FE02E0912803F0912903199513
:102330008091FE0281110FC081E08093FE02109215
:10234000DE0209C0803C09F4A6CF883C09F4A3CF83
:10235000883B09F07BCFE091FF0281E08E0F8093F4
:10236000FF02F0E0E252FD4F80818093BB0090912C
:10237000FF028091FE0229C0809156038093BB002A
:1023800085EC8093BC0062CF9091780380917703B5
:10239000981758F5E091780381E08E0F80937803C9
:1023A000F0E0E95AFC4F8081E9CFE091780381E0C9
:1023B0008E0F809378038091BB00F0E0E95AFC4FC8
:1023C000808390917803809177039817C8F285E80D
:1023D000D8CFE091780381E08E0F809378038091CD
:1023E000BB00F0E0E95AFC4F808380917A038111B1
:1023F0005CCF81E08093550384EA8093BC00109207
:102400007B0324CF85EC8093BC0010927B038091EA
:102410002003803230F4E0912003F0E0E050FD4FE3
:1024200010826091200370E0E0912603F091270371
:1024300080E093E019951092200308CF1092790361
:1024400034CF1092AC031092AB0388EE93E0A0E07F
:10245000B0E08093AD039093AE03A093AF03B0932D
:10246000B0038BE392E09093AA038093A9031092A8
:10247000F3031092F7031092F6031092F80389E524
:1024800092E09093F2038093F103EDE0F4E0108288
:10249000148213821582369684E0E934F807B9F77E
:1024A00081E292E090935404809353048EE192E091
:1024B000909356048093550484E08093570493E0EE
:1024C0009093580425E232E0309352042093510453
:1024D0002AE030E030935A042093590424EF31E08D
:1024E00030935C0420935B0410925F0410925E04AE
:1024F00010924D0410924E0410924F04109250040A
:1025000010925D041092DC031092DB032DE432E0A4
:102510003093DA032093D90397E09093DD039FEF84
:102520009093DE0396E09093DF0395E09093E003B1
:102530008093E1038BE08093E2038AE08093E303DE
:102540001092E4031092E5031092E6031092E70361
:102550001092E80381E00E94AC076DEA72E083ED1F
:1025600093E00E94500A6DEA72E08DEC93E00E94C5
:10257000500A6DEA72E087EC93E00E94500A6DEA1F
:1025800072E081EC93E00E94500A6DEA72E08BEBFE
:1025900093E00E94500A6DEA72E085EB93E00C94A0
:1025A000500ACF93DF93CDB7DEB762970FB6F8949A
:1025B000DEBF0FBECDBF789484B5826084BD84B584
:1025C000816084BD85B5826085BD85B5816085BD2E
:1025D00080916E00816080936E00109281008091E6
:1025E000810082608093810080918100816080936E
:1025F0008100809180008160809380008091B10093
:1026000084608093B1008091B00081608093B000BD
:10261000809191008260809391008091910081600F
:1026200080939100809190008160809390008091D0
:10263000A10082608093A1008091A10081608093BD
:10264000A1008091A00081608093A0008091210171
:10265000826080932101809121018160809321011A
:102660008091200181608093200180917A008460B4
:1026700080937A0080917A00826080937A008091C2
:102680007A00816080937A0080917A0080688093DC
:102690007A001092C10062E088E00E940C0362E0C0
:1026A00089E00E940C0382E00E94AC0710922D0387
:1026B00010922C03109282031092A4030E94210511
:1026C0008EE092E090932903809328038FE092E0BC
:1026D000909327038093260360E082E00E940C031E
:1026E00060E082E10E940C0360E083E10E940C0341
:1026F00060E083E00E940C0361E08CE00E940C0328
:1027000061E081E10E940C0310E0412E10E0512EA7
:102710000BE3602E712CAAE03A2EB8E62B2E82E055
:102720000E94AE02892B09F480C161E070E0CE0105
:1027300001960E94610ABE016F5F7F4F83ED93E0B7
:102740000E94E608CE0101960E94310983E00E94B2
:10275000AE02892B09F44AC00E94A40760E080E021
:102760000E944D088EEA92E00E94D90861E080E064
:102770000E944D0883ED93E00E943E0260ED77E0F9
:1027800080E090E00E94C8040E94A40760E080E01E
:102790000E944D0886EB92E00E94D90861E080E03B
:1027A0000E944D088DEC93E00E943E0260ED77E0C0
:1027B00080E090E00E94C8040E94A40760E080E0EE
:1027C0000E944D088EEB92E00E94D90861E080E003
:1027D0000E944D0887EC93E00E943E0260ED77E096
:1027E00080E090E00E94C8040E94A40781E10E945A
:1027F000AE02892B09F494C16DEA72E0CE010D9608
:102800000E94500A10922B0310922A030E94A407E0
:1028100060E080E00E944D0886EC92E00E94D908BA
:102820000E94F40620912A0330912B03329E8001EE
:10283000339E100D1124080F191F10932B030093C2
:102840002A0361E080E00E944D08C8010E94B008A0
:102850000E94F40620912A0330912B03329E8001BE
:10286000339E100D1124080F191F10932B03009392
:102870002A0361E080E00E944D08C8010E94B00870
:1028800064EF71E080E090E00E94C804E0902A03C9
:10289000F0902B0310922B0310922A030E94A4079E
:1028A00060E080E00E944D088EEC92E00E94D90822
:1028B00002E010E00E94F40640912A0350912B039D
:1028C000349E9001359E300D1124820F931F8C335E
:1028D00091050CF0D0C090932B0380932A0361E004
:1028E00080E00E944D0880912A0390912B030E9462
:1028F000B0080130110509F0BBC000912A03109106
:102900002B0310922B0310922A0364EF71E080E0F6
:1029100090E00E94C80417FDCEC00E94A40760E0AA
:1029200080E00E944D0886ED92E00E94D90861E0A7
:1029300080E00E944D08B7018AE0E816F1040CF02F
:102940009FC0CE0101960E94D7096DE972E0CE01C9
:1029500007960E94500ABE016F5F7F4FCE01079617
:102960000E94A309BC01CE010D960E940F0ACE0160
:1029700007960E943109CE0101960E943109BE01DD
:10298000635F7F4FCE0101960E94260A68E972E0DC
:10299000CE0101960E948D09BC01CE010D960E94C8
:1029A0000F0ACE0101960E943109B801CE010196AD
:1029B0000A3011050CF070C00E94D709BE01635F98
:1029C0007F4FCE0107960E94260A6DE972E0CE0184
:1029D00007960E948D09BE016F5F7F4F0E94A30979
:1029E000BC01CE010D960E940F0ACE0107960E94EF
:1029F0003109CE0101960E943109E114F10441F040
:102A00000115110529F491E0E91AF1080CE310E031
:102A1000CE010D960E943E0268EE73E080E090E0E9
:102A20000E94C8040150110976CF82E10E94AE02D3
:102A3000892B61F062E070E0CE0101960E94610A8C
:102A4000BE016F5F7F4F8DEC93E07ACE83E10E94F1
:102A5000AE02892B09F47ACE63E070E0CE010196D4
:102A60000E94610ABE016F5F7F4F87EC93E068CEE2
:102A700001E010E01FCF70922B0360922A032FCF4A
:102A8000CE0101960E94D709BE016F5F7F4FCE0134
:102A90000D960E94E6086FCF0E94D709BE01635FC2
:102AA0007F4FCE0107960E94260ABE016F5F7F4FBF
:102AB000CE01079693CF06E010E00E94A40760E0E5
:102AC0008CE00E94DA0264EF71E080E090E00E9406
:102AD000C80461E08CE00E94DA0260E080E00E94BD
:102AE0004D0886ED92E00E94D90861E080E00E94E6
:102AF0004D08CE010D960E943E0264EF71E080E029
:102B000090E00E94C80401501109B9F660E08CE021
:102B10000E94DA020E94A407CE010D960E9431099C
:102B200063ED73E0CE0101960E94260A61E070E039
:102B3000CE0101960E94460ECE0101960E943109F7
:102B40006DEC73E0CE0101960E94260A62E070E00F
:102B5000CE0101960E94460ECE0101960E943109D7
:102B600067EC73E0CE0101960E94260A63E070E0F4
:102B7000CE0101960E94460ECE0101960E943109B7
:102B800088E00E94AE02892B09F092C01092540393
:102B90004091530360E085E00E942010809353032E
:102BA0004091520360E088E00E942010809352031D
:102BB0004091510361E085E00E9420108093510311
:102BC0004091500361E088E00E9420108093500300
:102BD00040914F0361E08DE00E942010282F8091EA
:102BE0005203632D0E9442188295807FD82ED90E01
:102BF000D0925203809153030E9442188295807FA5
:102C0000E82EE90EE0925303809151030E9442188E
:102C10008295807FF82EF90EF09251038091500337
:102C20000E9442188295807F082F090F009350035D
:102C3000822F0E9442188295807F182F190F1093BF
:102C40004F0381E0809381032092A30310928203BB
:102C50001092A40390E080E00E94D60690E080E00D
:102C60000E94D6066D2D89EA93E00E94A7066E2D7C
:102C700089EA93E00E94A70681E090E00E94D606D0
:102C80006F2D89EA93E00E94A706602F89EA93E0FE
:102C90000E94A706612F89EA93E00E94A70681E0BF
:102CA0000E94600568EC70E080E090E00E94C8043B
:102CB00081E0809381032092A303109282031092FB
:102CC000A40390E080E00E94D60680E00E946005A8
:102CD0000E94A3046B017C0180917B03811165C07C
:102CE00081E080937B0380937A039FEF9093790335
:102CF0001092780396E09093770380935603809127
:102D00005603806D8093560380915503813009F0FE
:102D100046C1109255030E94A3046B017C0180916F
:102D200056038093BB0080917D0390917E03A09118
:102D30007F03B0918003892B8A2B8B2BA1F00E94FB
:102D4000A30400917D0310917E0320917F033091B5
:102D500080036C197D098E099F090617170728073C
:102D6000390708F443C08091BC0083FDD8CF85ECBF
:102D70008093BC000E94A3046B017C0180917B03C3
:102D8000813009F40EC180917803873008F02BC19F
:102D900080917803E7E5F3E0AEE2B3E090E09817C6
:102DA00051F121912D939F5FFACF80917D039091F6
:102DB0007E03A0917F03B0918003892B8A2B8B2BFC
:102DC00009F48ACF0E94A30400917D0310917E0331
:102DD00020917F03309180036C197D098E099F0932
:102DE000061717072807390708F076CF80917C036C
:102DF0000E943F0580E010922D0380932C0389EA06
:102E000093E00E9460064C0189EA93E00E9460060C
:102E10005C0189EA93E00E9460066C0189EA93E014
:102E20000E94600689EA93E00E9460068C0189EAAC
:102E300093E00E9460067C0189EA93E00E946006AC
:102E40009C01A40184E0559547958A95E1F74F7060
:102E50005527882D8F70349E800D112480934E034A
:102E6000A50194E0559547959A95E1F74F70552740
:102E70009A2D9F70A92E349EA00C1124A09252036B
:102E8000A60164E0559547956A95E1F74F7055277F
:102E90009C2D9F70C92E349EC00C1124C0925303E8
:102EA000A80174E0559547957A95E1F74F7055273D
:102EB0000F70349E000D112400935103A701E4E02C
:102EC00055954795EA95E1F74F7055279E2D9F70D0
:102ED000E92E349EE00C1124E0925003A901F4E0A5
:102EE00055954795FA95E1F74F7055272F70349E09
:102EF000200D112420934F03632D0E944218905DF2
:102F000090931C02805D80931B028A2D0E944218C0
:102F1000905D90931902805D809318028C2D0E9421
:102F20004218905D90931602805D80931502822F67
:102F30000E944218905D90930E02805D80930D0276
:102F40008E2D0E944218905D90930902805D8093BF
:102F50000802802F0E944218905D90930602805DC7
:102F60008093050260E080E00E944D0880E192E0DD
:102F70000E94D90861E080E00E944D0880E092E064
:102F80000E94D90862E370E080E090E00E94C804EB
:102F90004114510409F4C3CB0E940000BCCB85EE60
:102FA000E7CE80917D0390917E03A0917F03B09145
:102FB0008003892B8A2B8B2B09F4E0CE0E94A3047B
:102FC00000917D0310917E0320917F033091800357
:102FD0006C197D098E099F090617170728073907FD
:102FE00008F0CCCE03CF87E0D5CE85EB93E00E94EE
:102FF00031098BEB93E00E94310981EC93E00E9450
:10300000310987EC93E00E9431098DEC93E00E9436
:10301000310983ED93E00C943109BB274A3031F438
:10302000992322F4BDE2909581959F4F0C94191835
:10303000BB27FB015527AA27880F991FAA1FA41792
:1030400010F0A41B83955051B9F7A05DAA3308F086
:10305000A95DA193009779F7B111B1931192CB01BA
:103060000C943218DC01FC01672F71917723E1F792
:10307000329704C07C916D9370836291AE17BF0745
:10308000C8F30895991B79E004C0991F961708F0BA
:10309000961B881F7A95C9F780950895A1E21A2E8C
:1030A000AA1BBB1BFD010DC0AA1FBB1FEE1FFF1FEC
:1030B000A217B307E407F50720F0A21BB30BE40B3C
:1030C000F50B661F771F881F991F1A9469F7609583
:1030D0007095809590959B01AC01BD01CF0108953D
:1030E000EE0FFF1F881F8BBF0790F691E02D1994FC
:1030F0000F931F93CF93DF938230910510F482E0FA
:1031000090E0E0916204F091630430E020E0B0E0F0
:10311000A0E0309799F42115310509F44AC0281B25
:10312000390B24303105D8F58A819B8161157105F1
:1031300089F1FB0193838283FE0111C0408151819B
:103140000281138148175907E0F04817590799F48D
:10315000109761F012960C93129713961C93329667
:10316000CF01DF91CF911F910F91089500936204D9
:1031700010936304F4CF2115310551F04217530722
:1031800038F0A901DB019A01BD01DF01F801C1CFCF
:10319000EF01F9CF9093630480936204CDCFFE01D9
:1031A000E20FF31F819391932250310939832883D1
:1031B000D7CF2091600430916104232B41F42091FA
:1031C00033023091340230936104209360042091E3
:1031D0003102309132022115310541F42DB73EB74D
:1031E0004091350250913602241B350BE09160046A
:1031F000F0916104E217F307A0F42E1B3F0B281790
:10320000390778F0AC014E5F5F4F2417350748F05F
:103210004E0F5F1F5093610440936004819391931C
:103220009FCFF0E0E0E09CCFCF93DF930097E9F0F1
:10323000FC01329713821282A0916204B091630460
:10324000ED0130E020E01097A1F420813181820F60
:10325000931F20916004309161042817390709F009
:1032600061C0F0936104E0936004DF91CF91089511
:10327000EA01CE17DF07E8F54A815B819E0141151F
:103280005105B1F7E901FB83EA8349915991C40FD4
:10329000D51FEC17FD0761F4808191810296840FA0
:1032A000951FE90199838883828193819B838A8317
:1032B000F0E0E0E012968D919C9113970097B9F59C
:1032C0002D913C911197CD010296820F931F209171
:1032D0006004309161042817390739F6309751F5A9
:1032E0001092630410926204B0936104A09360048E
:1032F000BCCFD383C28340815181840F951FC817EF
:10330000D90761F44E5F5F4F88819981480F591F3B
:10331000518340838A819B81938382832115310568
:1033200009F0B0CFF0936304E09362049ECFFD01F7
:10333000DC01C0CF13821282D7CF4F925F926F927F
:103340007F928F929F92AF92BF92CF92DF92EF9235
:10335000FF920F931F93CF93DF938C01009799F403
:10336000CB01DF91CF911F910F91FF90EF90DF90F4
:10337000CF90BF90AF909F908F907F906F905F9015
:103380004F900C947818FC01E60FF71F9C01225017
:103390003109E217F30708F4AEC0D901CD91DC91F1
:1033A0001197C617D70720F1C530D10578F0CE01A7
:1033B00004978617970750F0C61BD70B2297C19327
:1033C000D1936D937C93CF010E941419C801DF91B2
:1033D000CF911F910F91FF90EF90DF90CF90BF9012
:1033E000AF909F908F907F906F905F904F900895D7
:1033F0005B01AC1ABD0A4C018C0E9D1EA0916204AB
:10340000B0916304512C412CF12CE12C109731F533
:1034100080916004909161048815990509F05CC061
:103420004616570608F058C080913102909132023A
:10343000009741F48DB79EB7409135025091360206
:10344000841B950BE817F90708F055C0F093610449
:10345000E0936004F90171836083B8CF8D919C91F2
:10346000119712966C90129713967C901397A8154B
:10347000B90559F56C0142E0C40ED11CCA14DB0435
:1034800020F1AC014A195B09DA011296159780F018
:103490006282738251834083D9016D937C93E114DE
:1034A000F10471F0D7011396FC93EE9312978ECF2F
:1034B00022968C0F9D1FF90191838083F301EFCF3A
:1034C000F0936304E093620481CF4816590608F430
:1034D0002C017D01D3019ACFCB010E9478187C0189
:1034E000009749F0AE01B8010E947E1AC8010E94FF
:1034F000141987016BCF10E000E068CFFB01DC01FD
:1035000002C001900D9241505040D8F70895FB0140
:10351000DC018D91019080190110D9F3990B089568
:10352000FB01DC0101900D920020E1F708950F935B
:103530001F93CF93DF93CDB7DEB72E970FB6F894D6
:10354000DEBF0FBECDBF0E891F8986E08C831A8334
:1035500009838FEF9FE79E838D83AE01465E5F4FA9
:10356000688D798DCE0101960E94C71A2F8138850A
:10357000020F131FF80110822E960FB6F894DEBFCB
:103580000FBECDBFDF91CF911F910F9108952F9264
:103590003F924F925F926F927F928F929F92AF92E3
:1035A000BF92CF92DF92EF92FF920F931F93CF9330
:1035B000DF9300D000D000D01F921F92CDB7DEB7AE
:1035C0007C013B018A01FC0117821682838181FF05
:1035D000DDC1CE0101965C01F7019381F30193FDFA
:1035E000859193FF81913F01882309F453C185326E
:1035F00039F493FD859193FF81913F01853229F440
:10360000B70190E00E94DF1CE7CF912C212C312CD8
:10361000FFE1F31538F08B3211F190F4803209F1AB
:10362000833229F137FC3CC020ED280F2A3050F5B9
:1036300036FE20C08AE0989E200D1124922E06C0EE
:103640008D3291F0803371F7689430F8F30193FD77
:10365000859193FF81913F018111DACF21C0689458
:1036600031F8689432F8F2CF689433F8EFCF689469
:1036700034F8ECCFEAE02E9E200D1124222E68941F
:1036800035F8E4CF8E3229F436FC04C1689436F85C
:10369000DDCF8C3619F4689437F8D8CF8836B1F27C
:1036A000982F9F7D95549330E0F08336A1F18337B6
:1036B000C1F1833509F063C02801F2E04F0E511CBF
:1036C000F801C080D180692D70E036FC02C06FEF38
:1036D0007FEFC6010E94C91C4C01689437F8820133
:1036E0000AC00C5F1F4FFFE3F98388248394912C59
:1036F0006501E89437F833FE2DC0522C81149104F3
:1037000071F5552009F468CFB70180E290E00E947E
:10371000DF1C5A94F6CFF801808189830E5F1F4F1A
:10372000E4CF2801F2E04F0E511CF801C080D18097
:10373000692D70E036FC02C06FEF7FEFC6010E947A
:10374000D41C4C018201D5CFB70180E290E00E94E9
:10375000DF1C2A942814190409F0B0F7CECFF60123
:1037600037FC859137FE81916F01B70190E00E948F
:10377000DF1C51105A94F1E08F1A9108BFCF8436A4
:1037800019F0893609F077C0F80137FE6BC0608107
:103790007181828193810C5F1F4FF32DFF763F2E45
:1037A00097FF09C090958095709561957F4F8F4FD9
:1037B0009F4F689437F82AE030E0A5010E940F1D62
:1037C000C82ECA188C2C432C36FE0CC0E89440F846
:1037D000C91440F434FE05C032FC03C0F32DFE7E54
:1037E0004F2E892C44FEAAC0FE01EC0DF11D8081F4
:1037F000803309F09CC0242D297E422E842D8870B0
:10380000582E43FCAAC040FEA4C09C2C821418F47D
:103810002C0C922C981844FEA6C0B70180E390E0CF
:103820000E94DF1C42FE09C088E790E041FE02C012
:1038300088E590E0B7010E94DF1CC91408F49FC01E
:10384000CA94D12C9FEFC91AD90ACA0CDB1CF60105
:1038500082916F01B70190E00E94DF1CAC14BD049F
:10386000B1F74FCF60817181072E000C880B990B47
:103870000E5F1F4F92CFD32CE894D4F82AE030E0AB
:103880008537E1F1232D297FD22E8F36A9F1F0F46F
:10389000883551F1F701868197812B960FB6F89400
:1038A000DEBF0FBECDBFDF91CF911F910F91FF9073
:1038B000EF90DF90CF90BF90AF909F908F907F90D0
:1038C0006F905F904F903F902F900895803749F010
:1038D000883701F7D4FE02C06894D2F820E130E0C6
:1038E0000DC06894D4F8F6CF34FE03C0822F8660F2
:1038F000D82E20E132E002C028E030E0F801D7FE07
:103900000FC060817181828193810C5F1F4FA5017F
:103910000E940F1DC82ECA183D2CE89437F852CFCC
:103920006081718190E080E00E5F1F4FF0CF42FC1C
:1039300002C0839463CF8394839460CF842D867870
:1039400009F45CCFF6CFB70180E290E00E94DF1C63
:1039500083948214C0F3512C5ECF522C58188214D9
:1039600008F459CFF8CF842D867809F466CF8BE21E
:1039700041FE80E247FC8DE2B70190E05CCFB701E9
:1039800080E390E00E94DF1C9A9457CF8FEF9FEF67
:1039900084CFFC010590615070400110D8F78095EC
:1039A00090958E0F9F1F0895FC016150704001900B
:1039B0000110D8F7809590958E0F9F1F08950F9353
:1039C0001F93CF93DF93182F092FEB018B8181FD7C
:1039D00009C01FEF0FEF812F902FDF91CF911F9123
:1039E0000F91089582FF14C02E813F818C819D81AB
:1039F000281739073CF4E881F981CF0101969983B2
:103A0000888310838E819F8101969F838E83E3CF6D
:103A1000E885F985812F1995892BA1F3DACFFA0171
:103A2000AA27283051F1203181F1E8946F936E7FFD
:103A30006E5F7F4F8F4F9F4FAF4FB1E03ED0B4E0EE
:103A40003CD0670F781F891F9A1FA11D680F791F2F
:103A50008A1F911DA11D6A0F711D811D911DA11D40
:103A600020D009F468943F912AE0269F1124301950
:103A7000305D3193DEF6CF010895462F4770405DEB
:103A80004193B3E00FD0C9F7F6CF462F4F70405D9A
:103A90004A3318F0495D31FD4052419302D0A9F7F5
:103AA000EACFB4E0A6959795879577956795BA95EF
:103AB000C9F700976105710508959B01AC010A2EB5
:103AC00006945795479537952795BA95C9F7620F8C
:103AD000731F841F951FA01D089511E0C7E4D1E056
:103AE00000E006C0802FFE010E9470182196011D83
:0E3AF000C834D10780E00807A9F7F894FFCF8B
:103AFE00444154453A20202F20202F3230202000E0
:103B0E0054494D453A20203A20203A2020001617DD
:103B1E0018191A1B1C3132333435363738392A30DE
:103B2E002300006404800000000000A7067A06DB74
:103B3E00065006730660065106000000005C081170
:103B4E0002DB0610020000000048030803D7024102
:103B5E006C61726D3A20486F757200416C61726DC6
:103B6E00003A204D696E757465003A204461790003
:103B7E003A204D6F756E7468003A20596561720077
:103B8E002073657420746F003A002F0030300041AE
:103B9E006C61726D20002530327500202000414C82
:103BAE0061726D203100414C61726D203200414CCA
:103BBE0061726D2033004D696E75746573005365C7
:0C3BCE00636F6E64730054696D657200D3
:00000001FF
